:100000000C9434000C9451000C9451000C94510049
:100010000C9451000C9451000C9451000C9451001C
:100020000C9451000C9451000C9451000C9451000C
:100030000C9451000C94A6010C9451000C945100A6
:100040000C9482010C9451000C9451000C945100BA
:100050000C9451000C9451000C9451000C945100DC
:100060000C9451000C94510011241FBECFEFD8E026
:10007000DEBFCDBF11E0A0E0B1E0E8EDF3E002C0EB
:1000800005900D92A430B107D9F721E0A4E0B1E0CA
:1000900001C01D92AF38B207E1F70E94CA010C946B
:1000A000EA010C94000090E080E061E070E0FC0167
:1000B000EC5FFE4F3081309548E020E0532F5170C7
:1000C000220F252B36954150C9F725B99B01082EE3
:1000D00001C0220F0A94EAF72BB920E12A95F1F723
:1000E00000C01BB820E12A95F1F700C001968830C6
:1000F0009105E9F60895E4E0F1E0108211821282A0
:10010000138214821582168217820895309100019D
:10011000EEE0F1E090E0391302C080E00895208124
:10012000282319F02181262319F49F5F3296F3CFFB
:1001300081E00895EEE0F1E010821182329681E0D4
:10014000EE38F807C9F7089581E08093000180E157
:10015000809302018093010110928E01ECE0F1E0A6
:10016000808380E481830C949A00E0910001E15047
:10017000F0E0EE0FFF1FE25FFE4F81E0EE30F80788
:1001800049F48091020180930E01809101018093D6
:100190000F0108959291829193838283EECF30E094
:1001A00020E070E0AB01022E02C0559547950A94FD
:1001B000E2F740FF06C0F901EC5FFE4F9081982BFB
:1001C00090832F5F3F4F2830310561F7089580916C
:1001D0000E0190910C01892379F080910F0190918B
:1001E0000D01892349F010920C0110920D018091AC
:1001F00000018F5F80930001089520910D0130E090
:1002000050910C0190E080E0B901082E02C0759574
:1002100067950A94E2F760FF06C0FC01EC5FFE4FB1
:100220004081452B408301968830910569F70895F8
:10023000CF9380918E0180FF05C090910101990FAD
:100240009093010181FF05C09091010196959093D3
:10025000010182FF05C090910201969590930201E1
:1002600083FF05C080910201880F80930201809175
:100270000201882321F080910101811103C0CF91F7
:100280000C94A4000E947B000E94B500C0E0809105
:100290000001C81728F00E94E700CF910C94FD00E0
:1002A000EC2FF0E0EE0FFF1FE25FFE4F61818081D7
:1002B0000E94CF00CF5FEBCF86B182FD07C0909147
:1002C0008E01913019F092E090938E0183FD07C06A
:1002D00090918E01983019F094E090938E0184FDF6
:1002E00007C090918E01943019F091E090938E01A7
:1002F00085FD07C080918E01843019F088E08093DD
:100300008E0108951F920F920FB60F9211242F9312
:100310003F934F935F936F937F938F939F93AF938D
:10032000BF93EF93FF930E945300FF91EF91BF9112
:10033000AF919F918F917F916F915F914F913F917D
:100340002F910F900FBE0F901F9018951F920F9234
:100350000FB60F9211242F933F934F935F936F9398
:100360007F938F939F93AF93BF93EF93FF930E94DD
:100370001801FF91EF91BF91AF919F918F917F9164
:100380006F915F914F913F912F910F900FBE0F9002
:100390001F9018958FEF84B98AB987B1837C87B98C
:1003A00088B18C6388B983E08093810081E0809379
:1003B0006F0085BD80936E00789480E18093020188
:1003C0008093010180930C0180E480930D010E94D1
:0803D0005C01FDCFF894FFCFA2
:0403D8000110100000
:00000001FF
