:100000000C9434000C9451000C9451000C94510049
:100010000C9451000C9451000C9451000C9451001C
:100020000C9451000C9451000C9451000C9451000C
:100030000C9451000C9449010C9451000C94510003
:100040000C9425010C9451000C9451000C94510017
:100050000C9451000C9451000C9451000C945100DC
:100060000C9451000C94510011241FBECFEFD8E026
:10007000DEBFCDBF11E0A0E0B1E0E4E1F3E002C0FB
:1000800005900D92A230B107D9F721E0A2E0B1E0CE
:1000900001C01D92AB30B207E1F70E946D010C94D4
:1000A00088010C94000090E080E061E070E0FC01C9
:1000B000ED5FFE4F3081309548E020E0532F5170C6
:1000C000220F252B36954150C9F725B99B01082EE3
:1000D00001C0220F0A94EAF72BB920E12A95F1F723
:1000E00000C01BB820E12A95F1F700C001968830C6
:1000F0009105E9F608958091020180FF0CC080917E
:10010000000120910001869590E8299F900111241B
:10011000822B809300018091020181FF0BC08091AE
:10012000000190910001880F991F9927991F892B31
:10013000809300018091020182FF0CC08091010137
:1001400020910101869590E8299F90011124822B2E
:10015000809301018091020183FF0BC08091010116
:1001600090910101880F991F9927991F892B8093DE
:1001700001011092030110920401109205011092E6
:1001800006011092070110920801109209011092C5
:100190000A0190E080E02091000130E0082E02C0CA
:1001A000359527950A94E2F720FF06C020910101BA
:1001B000FC01ED5FFE4F208301968830910559F7D1
:1001C000089596B192FD0EC080910001209100012A
:1001D000880F221F2227221F822B8093000182E09A
:1001E0008093020193FD0FC08091010120910101D4
:1001F000869540E8249F90011124822B8093010171
:1002000084E08093020194FD0FC080910001209151
:100210000001869540E8249F90011124822B809351
:10022000000181E08093020195FD0EC080910101E3
:1002300090910101880F991F9927991F892B80930D
:10024000010188E08093020108951F920F920FB67A
:100250000F9211242F933F934F935F936F937F934C
:100260008F939F93AF93BF93EF93FF930E9453009D
:10027000FF91EF91BF91AF919F918F917F916F917E
:100280005F914F913F912F910F900FBE0F901F9054
:1002900018951F920F920FB60F9211242F933F9330
:1002A0004F935F936F937F938F939F93AF93BF937E
:1002B000EF93FF930E947B00FF91EF91BF91AF916D
:1002C0009F918F917F916F915F914F913F912F916E
:1002D0000F900FBE0F901F9018958FEF84B98AB9B9
:1002E00087B1837C87B988B18C6388B983E08093B8
:1002F000810081E080936F0085BD80936E007894CB
:1003000080E180930101809300010E94E100FDCF14
:04031000F894FFCF8F
:020314001010C7
:00000001FF
