:100000000C9434000C9451000C9451000C94510049
:100010000C9451000C9451000C9451000C9451001C
:100020000C9451000C9451000C9451000C9451000C
:100030000C9451000C94DB030C9451000C9451006F
:100040000C9422030C9451000C9451000C94510018
:100050000C9451000C9451000C9451000C945100DC
:100060000C9451000C94510011241FBECFEFD8E026
:10007000DEBFCDBF11E0A0E0B1E0E8E9F8E002C0EA
:1000800005900D92A430B107D9F721E0A4E0B1E0CA
:1000900001C01D92AF38B207E1F70E94FF030C9434
:1000A0002F040C94000090E080E061E070E0FC011F
:1000B000EC5FFE4F3081309548E020E0532F5170C7
:1000C000220F252B36954150C9F725B99B01082EE3
:1000D00001C0220F0A94EAF72BB920E12A95F1F723
:1000E00000C01BB820E12A95F1F700C001968830C6
:1000F0009105E9F60895E4E0F1E0108211821282A0
:10010000138214821582168217820895309100019D
:10011000EEE0F1E090E0391302C080E00895208124
:10012000282319F02181262319F49F5F3296F3CFFB
:1001300081E00895CF93DF93C82F80916E008E7F6A
:1001400080936E000E947B008C2F6AE00E941D0449
:10015000EC2F96EF899FE00D1124CA3008F4BBC044
:10016000EA3008F067C0F0E0EF5CFB4F90910A01C5
:100170000C9429049E6090930A01909109019A6061
:1001800090930901909108019A60909308019091D1
:1001900007019A6010C09C6090930A019091090138
:1001A00094609093090190910801946090930801E4
:1001B00090910701946090930701909106019E60D1
:1001C00037C09E6090930A019091090192609093CC
:1001D0000901909108019E60909308019091070198
:1001E0009860E9CF9E6090930A0190910901926016
:1001F00090930901909108019E609093080190915D
:1002000007019260D8CF926090930A019091090102
:10021000966090930901909108019A60909308016B
:10022000909107019E609093070190910601926062
:1002300090930601873008F0B8C0E82FF0E0E55C45
:10024000FB4F80910A010C9429049E6090930A014F
:10025000909109019860CCCF946090930A0190919D
:100260000901986090930901909108019E608DCFDB
:100270009E6090930A019091090192609093090108
:100280009091080194609093080190910701986003
:1002900090930701909106019860CACF9E60909359
:1002A0000A01909109019A60DDCF9E6090930A0146
:1002B000909109019A6090930901909108019E60C4
:1002C000909308019091070192609093070190919B
:1002D00006019460ADCFEA3008F067C0F0E0EE5B55
:1002E000FB4F80910A010C942904806E80930A01CF
:1002F00080910901806A8093090180910801806AD8
:100300008093080180910701806A10C0806C8093FF
:100310000A0180910901806480930901809108019C
:1003200080648093080180910701806480930701B5
:1003300080910601806E37C0806E80930A018091A3
:10034000090180628093090180910801806E809389
:100350000801809107018068E9CF806E80930A01CF
:100360008091090180628093090180910801806E6B
:1003700080930801809107018062D8CF80628093CA
:100380000A0180910901806680930901809108012A
:10039000806A8093080180910701806E8093070135
:1003A00080910601806280930601C0E1D7E20E943D
:1003B00053002197E1F780916E00816080936E0079
:1003C000DF91CF910895806E80930A018091090199
:1003D0008068C9CF806480930A0180910901806898
:1003E0008093090180910801806E8ACF806E80938E
:1003F0000A018091090180628093090180910801BE
:1004000080648093080180910701806880930701D0
:10041000809106018068C7CF806E80930A01809129
:100420000901806ADDCF806E80930A018091090105
:10043000806A8093090180910801806E8093080191
:10044000809107018062809307018091060180649A
:10045000AACFFF920F931F93CF93DF9380916E00EB
:100460008E7F80936E000E947B00C0E0DAEA85E513
:10047000F82E90E080E03C2F3170282F2170FC0195
:10048000EC5FFE4F332321F0222321F0D08303C001
:100490002223E1F3F08201968830910571F700ED97
:1004A00017E00E94530001501109D9F783ED90E342
:1004B0000197F1F700C00000CF5FC330D1F6809103
:1004C0006E00816080936E00DF91CF911F910F913C
:1004D000FF900895EEE0F1E010821182329681E003
:1004E000EE38F807C9F70895E0910001E150F0E017
:1004F000EE0FFF1FE25FFE4F81E0EE30F80749F498
:100500008091030180930E018091020180930F017D
:100510000895DF019E918E9191838083FD01ECCF40
:1005200030E020E070E0AB01022E02C05595479507
:100530000A94E2F740FF06C0F901EC5FFE4F90819C
:10054000982B90832F5F3F4F2830310561F7089536
:1005500020910D0130E050910C0190E080E0B90154
:10056000082E02C0759567950A94E2F760FF06C0F1
:10057000FC01EC5FFE4F4081452B408301968830A3
:10058000910569F7089510928E0180910101811102
:1005900005C08091000182500E949A0010920101D2
:1005A0000E9429020E947B0082E0809300010E9449
:1005B0006A0280E180930E0188E080930F0190E24F
:1005C000909310018093110194E090930C0180931B
:1005D0000D010E94A80280910E0180930301609199
:1005E0000F016093020170E090E00E949002609120
:1005F000110170E08091100190E00C94900286B19E
:1006000084FD08C080918E01823019F081E08093D2
:100610008E01089582FD06C080918E018130C9F35C
:1006200082E0F5CF83FD06C080918E01883089F38A
:1006300084E0EDCF85FDEDCF80918E01843049F3CC
:1006400088E0E5CF1F920F920FB60F9211242F93DF
:100650003F934F935F936F937F938F939F93AF934A
:10066000BF93EF93FF930E945300FF91EF91BF91CF
:10067000AF919F918F917F916F915F914F913F913A
:100680002F910F900FBE0F901F90189590917C00A6
:10069000907F8F70982B90937C0080917A0080647B
:1006A00080937A0080917A0086FDFCCF809178005B
:1006B0009091790008950F931F93CF9380910E012D
:1006C00090910C01892341F080910F0190910D01CF
:1006D000892301E010E021F4CF911F910F9108953B
:1006E00086E00E944603C82F87E00E944603C77039
:1006F000980101C0220FCA95EAF720930C01877078
:10070000B80101C0660F8A95EAF760930D01822F48
:100710000E9486008111E4CF809100018F5F809359
:100720000001DACFCF9390918E01992309F441C053
:1007300080910201880F90FD05C091FF10C080914B
:10074000020186958093020180910301882321F0A4
:100750006091020161110FC0CF910C94C30280918E
:10076000030192FF04C0869580930301EDCF93FFB0
:10077000EBCF880FF9CF0E948600C82F8111ECCFF4
:100780000E947B000E94740280910001C81728F02B
:100790000E945B03CF910C94A802EC2FF0E0EE0FC7
:1007A000FF1FE25FFE4F618180810E949002CF5F58
:1007B000EBCFCF9108951F920F920FB60F92112495
:1007C0002F933F934F935F936F937F938F939F9359
:1007D000AF93BF93EF93FF930E949203FF91EF912A
:1007E000BF91AF919F918F917F916F915F914F9149
:1007F0003F912F910F900FBE0F901F9018958FEF84
:1008000084B98AB987B1837C87B988B18C6388B988
:1008100080E480937C0087E880937A0083E0809373
:10082000810081E080936F0085BD80936E00789495
:100830000E94C3020E94FF02FDCF991B79E004C011
:10084000991F961708F0961B881F7A95C9F780950F
:100850000895EE0FFF1F0590F491E02D0994F89490
:10086000FFCFBA00CB00E100F200030125012C010B
:1008700038014E015501750186019C01AD01BE0193
:10088000E301EA01750186019C01AD01BE01E301AE
:08089000EA01F6010C0213025B
:040898000201101039
:00000001FF
