:100000000C9434000C9451000C9451000C94510049
:100010000C9451000C9451000C9451000C9451001C
:100020000C9451000C9451000C9451000C9451000C
:100030000C9451000C946C040C9451000C945100DD
:100040000C94C2000C9451000C9451000C9451007B
:100050000C9451000C9451000C9451000C945100DC
:100060000C9451000C94510011241FBECFEFD8E026
:10007000DEBFCDBF11E0A0E0B1E0E4E0FCE002C0F3
:1000800005900D92A630B107D9F722E0A6E0B1E0C5
:1000900001C01D92A331B207E1F70E94AE050C9496
:1000A000E5050C94000090917C00907F8F70982B58
:1000B00090937C0080917A00806480937A00809194
:1000C0007A0086FDFCCF80917800909179000895A8
:1000D00090E080E061E070E0FC01E557FE4F308188
:1000E000309548E020E0532F5170220F252B369594
:1000F0004150C9F725B99B01082E01C0220F0A946F
:10010000EAF72BB920E12A95F1F700C01BB820E1EE
:100110002A95F1F700C0019688309105E9F6089517
:10012000EBE8F1E0108211821282138214821582B0
:1001300016821782089586B190918A01911109C0A3
:1001400084FD08C080918901823019F081E080939C
:100150008901089582FD06C0809189018130C9F32B
:1001600082E0F5CF83FD06C080918901883089F354
:1001700084E0EDCF85FDEDCF80918901843049F396
:1001800088E0E5CF1F920F920FB60F9211242F93A4
:100190003F934F935F936F937F938F939F93AF930F
:1001A000BF93EF93FF930E946800FF91EF91BF917F
:1001B000AF919F918F917F916F915F914F913F91FF
:1001C0002F910F900FBE0F901F9018953091010145
:1001D000E9E0F1E090E0391302C080E00895208169
:1001E000282319F02181262319F49F5F3296F3CF3B
:1001F00081E00895CF93DF93C82F80916E008E7FAA
:1002000080936E000E9490008C2F6AE00E94D305BC
:10021000EC2F96EF899FE00D1124CA3008F43CC101
:10022000EA3008F067C0F0E0E951FA4F909191018F
:100230000C94DF059E6090939101909190019A60DB
:100240009093900190918F019A6090938F0190917B
:100250008E019A6010C09C609093910190919001E2
:1002600094609093900190918F01946090938F018E
:1002700090918E01946090938E0190918D019E607B
:1002800037C09E60909391019091900192609093FD
:10029000900190918F019E6090938F0190918E01BB
:1002A0009860E9CF9E609093910190919001926047
:1002B0009093900190918F019E6090938F01909107
:1002C0008E019260D8CF92609093910190919001AD
:1002D00096609093900190918F019A6090938F0116
:1002E00090918E019E6090938E0190918D0192600D
:1002F00090938D01873008F076C0E82FF0E0EF5042
:10030000FA4F809191010C94DF059E6090939101CA
:10031000909190019860CCCF9460909391019091CE
:10032000900198609093900190918F019E608DCF85
:100330009E609093910190919001926090939001B2
:1003400090918F01946090938F0190918E019860AD
:1003500090938E0190918D019860CACF9E6090938A
:100360009101909190019A60DDCF9E6090939101F0
:10037000909190019A609093900190918F019E606E
:1003800090938F0190918E01926090938E01909145
:100390008D019460ADCF806E80939101809190012A
:1003A000806A8093900180918F01806A80938F0191
:1003B00080918E01806A10C0806C80939101809141
:1003C000900180648093900180918F01806480937C
:1003D0008F0180918E01806480938E0180918D01C8
:1003E000806E80938D01C0E1D7E20E946800219762
:1003F000E1F780916E00816080936E00DF91CF9174
:100400000895806E80939101809190018062809325
:10041000900180918F01806E80938F0180918E0179
:100420008068DACF806E8093910180919001806224
:100430008093900180918F01806E80938F018091D5
:100440008E018062C9CF806280939101809190017A
:1004500080668093900180918F01806A80938F01E4
:1004600080918E01806E80938E0180918D018062DB
:10047000B8CF806E80939101809190018068D8CF31
:1004800080648093910180919001806880939001B5
:1004900080918F01806E8ACFEA3008F0A4CFF0E01F
:1004A000E850FA4F809191010C94DF0588638093A6
:1004B00091018091900188628093900180918F01D9
:1004C000886280938F0180918E01886210C0806362
:1004D000809391018091900180618093900180913F
:1004E0008F01806180938F0180918E018061809364
:1004F0008E0180918D01886374CF88638093910110
:100500008091900188608093900180918F01886331
:1005100080938F0180918E018062E9CF8863809300
:1005200091018091900188608093900180918F016A
:10053000886380938F0180918E018860D8CF886016
:1005400080939101809190018861809390018091C6
:100550008F01886280938F0180918E0188638093E0
:100560008E0180918D0188603CCF886380939101DA
:10057000809190018062D8CF8061809391018091B9
:10058000900180628093900180918F01886399CF60
:10059000886380939101809190018860809390019D
:1005A00080918F01806180938F0180918E018062A4
:1005B0005ACF886380939101809190018862E2CF45
:1005C000886380939101809190018862809390016B
:1005D00080918F01886380938F0180918E01886064
:1005E00080938E0180918D018061FBCEFF920F93ED
:1005F0001F93CF93DF9380916E008E7F80936E0068
:100600000E949000C0E0DAEA85E5F82E90E080E0F4
:100610003C2F3170282F2170FC01E557FE4F33230A
:1006200021F0222321F0D08303C02223E1F3F082C2
:1006300001968830910571F700ED17E00E9468007F
:1006400001501109D9F783ED90E30197F1F700C04C
:100650000000CF5FC330D1F680916E00816080933F
:100660006E00DF91CF911F910F91FF900895E9E007
:10067000F1E010821182329681E0E938F807C9F77B
:100680000895E0910101E150F0E0EE0FFF1FE75FF8
:10069000FE4F81E0E930F80749F48091040180932E
:1006A00009018091030180930A010895DF019E9161
:1006B0008E9191838083FD01ECCF30E020E070E0EB
:1006C000AB01022E02C0559547950A94E2F740FF10
:1006D00006C0F901E557FE4F9081982B90832F5F5C
:1006E0003F4F2830310561F708952091080130E02F
:1006F0005091070190E080E0B901082E02C0759585
:1007000067950A94E2F760FF06C0FC01E557FE4FCB
:100710004081452B408301968830910569F7089503
:100720001092890180910201811105C0809101011F
:1007300082500E94FA00109202010E94F6020E946A
:10074000900082E0809301010E94370380E1809352
:10075000090188E080930A0190E290930B01809355
:100760000C0194E090930701809308010E947503A7
:10077000809109018093040160910A016093030153
:1007800070E090E00E945D0360910C0170E0809148
:100790000B0190E00C945D03809101018250843143
:1007A00020F084E08093000108958F3010F085E000
:1007B000F9CF8A3010F086E0F5CF853010F087E071
:1007C000F1CF88E0EFCF0F931F93CF938091090172
:1007D00090910701892341F080910A0190910801CD
:1007E000892301E010E021F4CF911F910F9108952A
:1007F00086E00E945300C82F87E00E945300C77014
:10080000980101C0220FCA95EAF72093070187706B
:10081000B80101C0660F8A95EAF760930801822F3C
:100820000E94E6008111E4CF809101018F5F8093E7
:100830000101CF911F910F910C94CC03CF93909114
:100840008901992309F446C08091030191FF12C0E8
:10085000869571F0809303016091030180910401FA
:100860000E94E600C82F8823E1F0CF910C949003FA
:1008700080E8F0CF90FF04C0880F61F781E0EACFF5
:100880008091040192FF07C0869519F080930401BE
:10089000E3CF80E8FBCF93FFDFCF880FB9F781E08C
:1008A000F5CF0E9490000E94410380910101C8177A
:1008B00028F00E94E303CF910C947503EC2FF0E035
:1008C000EE0FFF1FE75FFE4F618180810E945D0395
:1008D000CF5FEBCFCF9108951F920F920FB60F927B
:1008E00011242F933F934F935F936F937F938F9335
:1008F0009F93AF93BF93EF93FF93809106018F5F18
:10090000809306019091060180910001981720F0D4
:10091000109206010E941E04FF91EF91BF91AF91CA
:100920009F918F917F916F915F914F913F912F9107
:100930000F900FBE0F901F9018950C945D030F93AE
:100940001F93CF93DF93EC018C010E5E1F4F6B81E1
:100950008A810E945D032296C017D107C1F7DF91FB
:10096000CF911F910F910895DC01E2EDF1E0AE17F8
:10097000BF0751F08C919081892331F011968C91B1
:1009800011979181892339F4759682E0E131F80756
:1009900071F780E0089581E008957F928F929F9291
:1009A000AF92BF92CF92DF92EF92FF920F931F937D
:1009B000CF93DF93812C85E1782ECC24C394D12C66
:1009C000A82CB12C879CE00111249E012E523E4F91
:1009D000790186E00E945300182F87E00E9453009F
:1009E0001770F60102C0EE0FFF1F1A95E2F78F0194
:1009F000CD56DE4FEFAFFE01E05CFF4F0083877006
:100A000099249394980E73969082C7010E94B4041F
:100A10008823A1F08A948394F3E08F12D1CFDF91E1
:100A2000CF911F910F91FF90EF90DF90CF90BF90EB
:100A3000AF909F908F907F900C946800FE01E75BD1
:100A4000FF4F008331960083F4E0F91508F052C09F
:100A5000FE01ED5BFF4F0083202F2695319620830A
:100A6000302F330F339630833196008333962083B3
:100A700031960083339600833196308387E0981651
:100A800059F198E0991609F1E6E09E120DC07A9CA2
:100A9000C0017B9C900D1124FC01E852FE4F208385
:100AA00087529E4FFC0120837A9CC0017B9C900D55
:100AB0001124FC01EC52FE4F30838B529E4FFC01FF
:100AC0002083C7010E949F04A6CFFE01EF5AFF4F6B
:100AD0002083CE5ADF4F38837A9CC0017B9C900DD7
:100AE0001124FC01E052FE4F30838F519E4FFC01D8
:100AF0003083CDCFF2E09F16F9F023E0921699F003
:100B000031E09312DECF7A9CC0017B9C900D1124C2
:100B1000FC01E252FE4F202F2695208381529E4FEA
:100B2000FC010083CECFFE01EB5BFF4F802F86954B
:100B30008083CA5BDF4F88837A9CC0017B9C900DC9
:100B40001124FC01EA52FE4F008389529E4F202F50
:100B50002695FC012083D7CF0C945D038FEF84B9D9
:100B60008AB987B1837C87B988B18C6388B980E4FE
:100B700080937C0087E880937A0082E080938100F4
:100B800081E080936F0085BD80936E0078948091A2
:100B90008A01811105C00E9490030E949B00FDCF35
:100BA0000E94CD04FACF991B79E004C0991F9617D3
:100BB00008F0961B881F7A95C9F780950895EE0F67
:100BC000FF1F0590F491E02D0994F894FFCF1A01CE
:100BD0002B0141015201630185018C019801AE0195
:100BE000B501CB01DC0101021202230239024002ED
:100BF000560267027D028E029F02B502BC02C80245
:040C0000D902E00233
:060C0400040201101000C3
:00000001FF
