:100000000C9434000C9451000C9451000C94510049
:100010000C9451000C9451000C9451000C9451001C
:100020000C9451000C9451000C9451000C9451000C
:100030000C9451000C944D040C9451000C945100FC
:100040000C9494030C9451000C9451000C945100A6
:100050000C9451000C9451000C9451000C945100DC
:100060000C9451000C94510011241FBECFEFD8E026
:10007000DEBFCDBF11E0A0E0B1E0ECE7F9E002C0E7
:1000800005900D92A430B107D9F721E0A4E0B1E0CA
:1000900001C01D92AF38B207E1F70E9471040C94C1
:1000A000A1040C94000090E080E061E070E0FC01AD
:1000B000EC5FFE4F3081309548E020E0532F5170C7
:1000C000220F252B36954150C9F725B99B01082EE3
:1000D00001C0220F0A94EAF72BB920E12A95F1F723
:1000E00000C01BB820E12A95F1F700C001968830C6
:1000F0009105E9F60895E4E0F1E0108211821282A0
:10010000138214821582168217820895309100019D
:10011000EEE0F1E090E0391302C080E00895208124
:10012000282319F02181262319F49F5F3296F3CFFB
:1001300081E00895CF93DF93C82F80916E008E7F6A
:1001400080936E000E947B008C2F6AE00E948F04D7
:10015000EC2F96EF899FE00D1124CA3008F43CC1C2
:10016000EA3008F067C0F0E0ED55FB4F90910A01CE
:100170000C949B049E6090930A01909109019A60EF
:1001800090930901909108019A60909308019091D1
:1001900007019A6010C09C6090930A019091090138
:1001A00094609093090190910801946090930801E4
:1001B00090910701946090930701909106019E60D1
:1001C00037C09E6090930A019091090192609093CC
:1001D0000901909108019E60909308019091070198
:1001E0009860E9CF9E6090930A0190910901926016
:1001F00090930901909108019E609093080190915D
:1002000007019260D8CF926090930A019091090102
:10021000966090930901909108019A60909308016B
:10022000909107019E609093070190910601926062
:1002300090930601873008F076C0E82FF0E0E35590
:10024000FB4F80910A010C949B049E6090930A01DD
:10025000909109019860CCCF946090930A0190919D
:100260000901986090930901909108019E608DCFDB
:100270009E6090930A019091090192609093090108
:100280009091080194609093080190910701986003
:1002900090930701909106019860CACF9E60909359
:1002A0000A01909109019A60DDCF9E6090930A0146
:1002B000909109019A6090930901909108019E60C4
:1002C000909308019091070192609093070190919B
:1002D00006019460ADCF806E80930A018091090180
:1002E000806A8093090180910801806A80930801E7
:1002F00080910701806A10C0806C80930A01809110
:1003000009018064809309018091080180648093D1
:1003100008018091070180648093070180910601A4
:10032000806E80930601C0E1D7E20E9453002197BE
:10033000E1F780916E00816080936E00DF91CF9134
:100340000895806E80930A018091090180628093F4
:10035000090180910801806E809308018091070156
:100360008068DACF806E80930A01809109018062F3
:100370008093090180910801806E8093080180912B
:1003800007018062C9CF806280930A0180910901D0
:1003900080668093090180910801806A809308013A
:1003A00080910701806E8093070180910601806231
:1003B000B8CF806E80930A01809109018068D8CF00
:1003C000806480930A01809109018068809309010B
:1003D00080910801806E8ACFEA3008F0A4CFF0E067
:1003E000EC54FB4F80910A010C949B04806780932E
:1003F0000A018091090180658093090180910801BB
:1004000080658093080180910701806526C0806324
:1004100080930A0180910901806180930901809194
:1004200008018061809308018091070180618093B9
:10043000070180910601886774CF806780930A0165
:100440008091090180618093090180910801806792
:100450008093080180910701806480930701809157
:10046000060180675ECF806780930A018091090151
:100470008061809309018091080180678093080161
:10048000809107018061E9CF806180930A018091AA
:100490000901806380930901809108018065809340
:1004A0000801809107018067809307018091060110
:1004B000806137CF806780930A0180910901806451
:1004C000D8CF806280930A01809109018064809373
:1004D000090180910801806794CF806780930A01A9
:1004E00080910901806180930901809108018062F7
:1004F00080930801809107018064809307018091B7
:10050000060180640ECF806780930A018091090103
:100510008065DDCF806780930A0180910901806545
:100520008093090180910801806780930801809180
:100530000701806138CFFF920F931F93CF93DF9312
:1005400080916E008E7F80936E000E947B00C0E0E1
:10055000DAEA85E5F82E90E080E03C2F3170282F14
:100560002170FC01EC5FFE4F332321F0222321F0A8
:10057000D08303C02223E1F3F082019688309105F5
:1005800071F700ED17E00E94530001501109D9F7EF
:1005900083ED90E30197F1F700C00000CF5FC33017
:1005A000D1F680916E00816080936E00DF91CF91D3
:1005B0001F910F91FF900895EEE0F1E010821182FB
:1005C000329681E0EE38F807C9F70895E09100010E
:1005D000E150F0E0EE0FFF1FE25FFE4F81E0EE30F2
:1005E000F80749F48091030180930E018091020184
:1005F00080930F010895DF019E918E9191838083F6
:10060000FD01ECCF30E020E070E0AB01022E02C033
:10061000559547950A94E2F740FF06C0F901EC5F53
:10062000FE4F9081982B90832F5F3F4F28303105EC
:1006300061F7089520910D0130E050910C0190E098
:1006400080E0B901082E02C0759567950A94E2F71B
:1006500060FF06C0FC01EC5FFE4F4081452B4083EC
:1006600001968830910569F7089510928E01809166
:100670000101811105C08091000182500E949A0001
:10068000109201010E949B020E947B0082E08093F5
:1006900000010E94DC0280E180930E0188E08093DB
:1006A0000F0190E2909310018093110194E09093D8
:1006B0000C0180930D010E941A0380910E0180931A
:1006C000030160910F016093020170E090E00E94CD
:1006D00002036091110170E08091100190E00C9490
:1006E000020386B184FD08C080918E01823019F02A
:1006F00081E080938E01089582FD06C080918E0175
:100700008130C9F382E0F5CF83FD06C080918E0170
:10071000883089F384E0EDCF85FDEDCF80918E01A7
:10072000843049F388E0E5CF1F920F920FB60F9205
:1007300011242F933F934F935F936F937F938F93E6
:100740009F93AF93BF93EF93FF930E945300FF914A
:10075000EF91BF91AF919F918F917F916F915F9139
:100760004F913F912F910F900FBE0F901F901895B2
:1007700090917C00907F8F70982B90937C0080915B
:100780007A00806480937A0080917A0086FDFCCFA5
:10079000809178009091790008950F931F93CF93E3
:1007A00080910E0190910C01892341F080910F01FD
:1007B00090910D01892301E010E021F4CF911F9168
:1007C0000F91089586E00E94B803C82F87E00E9429
:1007D000B803C770980101C0220FCA95EAF72093A9
:1007E0000C018770B80101C0660F8A95EAF7609323
:1007F0000D01822F0E9486008111E4CF80910001BB
:100800008F5F80930001DACFCF9390918E0199236F
:1008100009F441C080910201880F90FD05C091FF4D
:1008200010C080910201869580930201809103019E
:10083000882321F06091020161110FC0CF910C94C7
:1008400035038091030192FF04C0869580930301D4
:10085000EDCF93FFEBCF880FF9CF0E948600C82F12
:100860008111ECCF0E947B000E94E6028091000182
:10087000C81728F00E94CD03CF910C941A03EC2FD7
:10088000F0E0EE0FFF1FE25FFE4F618180810E946A
:100890000203CF5FEBCFCF9108951F920F920FB657
:1008A0000F9211242F933F934F935F936F937F93F6
:1008B0008F939F93AF93BF93EF93FF930E94040492
:1008C000FF91EF91BF91AF919F918F917F916F9128
:1008D0005F914F913F912F910F900FBE0F901F90FE
:1008E00018958FEF84B98AB987B1837C87B988B1AD
:1008F0008C6388B980E480937C0087E880937A00D9
:1009000083E08093810081E080936F0085BD8093B8
:100910006E0078940E9435030E947103FDCF991BED
:1009200079E004C0991F961708F0961B881F7A95E6
:10093000C9F780950895EE0FFF1F0590F491E02D03
:100940000994F894FFCFBA00CB00E100F200030154
:1009500025012C0138014E0155016B017C01A101DB
:10096000B201C301D901E001F60107021D02330201
:0C09700044025A0261026D0283028A02F6
:04097C000201101054
:00000001FF
