:100000000C9434000C9451000C9451000C94510049
:100010000C9451000C9451000C9451000C9451001C
:100020000C9451000C9451000C9451000C9451000C
:100030000C9451000C94BF030C9451000C9451008B
:100040000C9406030C9451000C9451000C94510034
:100050000C9451000C9451000C9451000C945100DC
:100060000C9451000C94510011241FBECFEFD8E026
:10007000DEBFCDBF11E0A0E0B1E0E6E6F8E002C0EF
:1000800005900D92A430B107D9F721E0A4E0B1E0CA
:1000900001C01D92AF38B207E1F70E94E3030C9450
:1000A00016040C94000090E080E061E070E0FC0138
:1000B000EC5FFE4F3081309548E020E0532F5170C7
:1000C000220F252B36954150C9F725B99B01082EE3
:1000D00001C0220F0A94EAF72BB920E12A95F1F723
:1000E00000C01BB820E12A95F1F700C001968830C6
:1000F0009105E9F60895E4E0F1E0108211821282A0
:10010000138214821582168217820895309100019D
:10011000EEE0F1E090E0391302C080E00895208124
:10012000282319F02181262319F49F5F3296F3CFFB
:1001300081E00895282F6AE00E940404E22F96EFE0
:10014000899FE00D11242A3008F4BBC0EA3008F082
:1001500067C0F0E0E85EFB4F90910A010C94100438
:100160009E6090930A01909109019A609093090111
:10017000909108019A6090930801909107019A600C
:1001800010C09C6090930A01909109019460909333
:1001900009019091080194609093080190910701E2
:1001A000946090930701909106019E6037C09E6015
:1001B00090930A01909109019260909309019091A6
:1001C00008019E6090930801909107019860E9CF23
:1001D0009E6090930A0190910901926090930901A9
:1001E000909108019E6090930801909107019260A0
:1001F000D8CF926090930A019091090196609093F4
:100200000901909108019A6090930801909107016B
:100210009E60909307019091060192609093060171
:10022000873008F0B8C0E82FF0E0EE5DFB4F80911A
:100230000A010C9410049E6090930A0190910901A8
:100240009860CCCF946090930A01909109019860D6
:1002500090930901909108019E608DCF9E609093CC
:100260000A0190910901926090930901909108010F
:100270009460909308019091070198609093070112
:10028000909106019860CACF9E6090930A01909168
:1002900009019A60DDCF9E6090930A019091090157
:1002A0009A6090930901909108019E6090930801D3
:1002B00090910701926090930701909106019460DC
:1002C000ADCFEA3008F067C0F0E0E75DFB4F80910A
:1002D0000A010C941004806E80930A018091090138
:1002E000806A8093090180910801806A80930801E7
:1002F00080910701806A10C0806C80930A01809110
:1003000009018064809309018091080180648093D1
:1003100008018091070180648093070180910601A4
:10032000806E37C0806E80930A01809109018062DF
:100330008093090180910801806E8093080180916B
:1003400007018068E9CF806E80930A0180910901DE
:1003500080628093090180910801806E809308017A
:10036000809107018062D8CF806280930A018091DA
:10037000090180668093090180910801806A809359
:10038000080180910701806E80930701809106012A
:100390008062809306010E94530087E893E10197F1
:1003A000F1F700C000000895806E80930A018091EB
:1003B00009018068CECF806480930A018091090191
:1003C00080688093090180910801806E8FCF806ED4
:1003D00080930A01809109018062809309018091D4
:1003E00008018064809308018091070180688093F0
:1003F0000701809106018068CCCF806E80930A014E
:1004000080910901806ADDCF806E80930A0180911E
:100410000901806A8093090180910801806E8093B0
:100420000801809107018062809307018091060195
:100430008064AFCFFF920F931F93CF93DF93809190
:100440006E008E7F80936E000E947B00C0E0DAEA2F
:1004500085E5F82E90E080E03C2F3170282F217048
:10046000FC01EC5FFE4F332321F0222321F0D083E7
:1004700003C02223E1F3F08201968830910571F7E1
:1004800000ED17E00E94530001501109D9F783EDE8
:1004900090E30197F1F700C00000CF5FC330D1F6C1
:1004A00080916E00816080936E00DF91CF911F91EB
:1004B0000F91FF900895EEE0F1E0108211823296E4
:1004C00081E0EE38F807C9F70895E0910001E150A6
:1004D000F0E0EE0FFF1FE25FFE4F81E0EE30F80725
:1004E00049F48091020180930E0180910101809373
:1004F0000F010895DF019E918E9191838083FD010C
:10050000ECCF30E020E070E0AB01022E02C0559548
:1005100047950A94E2F740FF06C0F901EC5FFE4FF1
:100520009081982B90832F5F3F4F2830310561F7E2
:10053000089520910D0130E050910C0190E080E091
:10054000B901082E02C0759567950A94E2F760FF1D
:1005500006C0FC01EC5FFE4F4081452B40830196B5
:100560008830910569F70895CF93DF9310928E013B
:100570000E941A020E947B0082E0809300010E9488
:100580005B02CEE0D1E080E1888388E0898390E25D
:100590009A838B83ECE0F1E094E0908381830E9466
:1005A000990288818093020169816093010170E062
:1005B00090E00E9481026B8170E08A8190E0DF917F
:1005C000CF910C94810286B184FD08C080918E0188
:1005D000823019F081E080938E01089582FD06C07B
:1005E00080918E018130C9F382E0F5CF83FD06C092
:1005F00080918E01883089F384E0EDCF85FDEDCFC9
:1006000080918E01843049F388E0E5CF1F920F92EC
:100610000FB60F9211242F933F934F935F936F93D5
:100620007F938F939F93AF93BF93EF93FF930E941A
:100630005300FF91EF91BF91AF919F918F917F9167
:100640006F915F914F913F912F910F900FBE0F903F
:100650001F90189590917C00907F8F70982B9093AD
:100660007C0080917A00806480937A0080917A0087
:1006700086FDFCCF809178009091790008950F93CA
:100680001F93CF9380910E0190910C01892341F02B
:1006900080910F0190910D01892301E010E021F478
:1006A000CF911F910F91089586E00E942A03C82FD1
:1006B00087E00E942A03C770980101C0220FCA95E3
:1006C000EAF720930C018770B80101C0660F8A9584
:1006D000EAF760930D01822F0E9486008111E4CF1A
:1006E000809100018F5F80930001DACFCF939091CA
:1006F0008E01992309F441C080910101880F90FD7A
:1007000005C091FF10C08091010186958093010181
:1007100080910201882321F06091010161110FC0D5
:10072000CF910C94B4028091020192FF04C086958F
:1007300080930201EDCF93FFEBCF880FF9CF0E949A
:100740008600C82F8111ECCF0E947B000E946502B9
:1007500080910001C81728F00E943F03CF910C94AC
:100760009902EC2FF0E0EE0FFF1FE25FFE4F618178
:1007700080810E948102CF5FEBCFCF9108951F92BD
:100780000F920FB60F9211242F933F934F935F93C5
:100790006F937F938F939F93AF93BF93EF93FF9349
:1007A0000E947603FF91EF91BF91AF919F918F913E
:1007B0007F916F915F914F913F912F910F900FBE5D
:1007C0000F901F9018958FEF84B98AB987B1837CF9
:1007D00087B988B18C6388B980E480937C0087E80E
:1007E00080937A0083E08093810081E080936F00A2
:1007F00085BD80936E00789480E40E949A000E94E8
:10080000B4020E94E302FDCF991B79E004C0991F56
:10081000961708F0961B881F7A95C9F7809508955A
:10082000EE0FFF1F0590F491E02D0994F894FFCF8F
:10083000B000C100D700E800F9001B0122012E0121
:1008400044014B016B017C019201A301B401D4016D
:10085000DB016B017C019201A301B401D401DB0136
:06086000E701FD010402A6
:04086600021010006C
:00000001FF
