:100000000C9434000C9451000C9451000C94510049
:100010000C9451000C9451000C9451000C9451001C
:100020000C9451000C9451000C9451000C9451000C
:100030000C9451000C94E4030C9451000C94510066
:100040000C94C2000C9451000C9451000C9451007B
:100050000C9451000C9451000C9451000C945100DC
:100060000C9451000C94510011241FBECFEFD8E026
:10007000DEBFCDBF11E0A0E0B1E0EAEDFAE002C0E2
:1000800005900D92A430B107D9F722E0A4E0B1E0C9
:1000900001C01D92A031B207E1F70E9419050C942E
:1000A00050050C94000090917C00907F8F70982BED
:1000B00090937C0080917A00806480937A00809194
:1000C0007A0086FDFCCF80917800909179000895A8
:1000D00090E080E061E070E0FC01E857FE4F308185
:1000E000309548E020E0532F5170220F252B369594
:1000F0004150C9F725B99B01082E01C0220F0A946F
:10010000EAF72BB920E12A95F1F700C01BB820E1EE
:100110002A95F1F700C0019688309105E9F6089517
:10012000E8E8F1E0108211821282138214821582B3
:1001300016821782089586B190918701911109C0A6
:1001400084FD08C080918601823019F081E080939F
:100150008601089582FD06C0809186018130C9F331
:1001600082E0F5CF83FD06C080918601883089F357
:1001700084E0EDCF85FDEDCF80918601843049F399
:1001800088E0E5CF1F920F920FB60F9211242F93A4
:100190003F934F935F936F937F938F939F93AF930F
:1001A000BF93EF93FF930E946800FF91EF91BF917F
:1001B000AF919F918F917F916F915F914F913F91FF
:1001C0002F910F900FBE0F901F9018953091000146
:1001D000E6E0F1E090E0391302C080E0089520816C
:1001E000282319F02181262319F49F5F3296F3CF3B
:1001F00081E00895CF93DF93C82F80916E008E7FAA
:1002000080936E000E9490008C2F6AE00E943E0551
:10021000EC2F96EF899FE00D1124CA3008F4BBC083
:10022000EA3008F067C0F0E0EE5AFA4F90918E0184
:100230000C944A059E6090938E0190918D019A6076
:1002400090938D0190918C019A6090938C01909184
:100250008B019A6010C09C6090938E0190918D01EB
:10026000946090938D0190918C01946090938C0197
:1002700090918B01946090938B0190918A019E6084
:1002800037C09E6090938E0190918D019260909303
:100290008D0190918C019E6090938C0190918B01C7
:1002A0009860E9CF9E6090938E0190918D0192604D
:1002B00090938D0190918C019E6090938C01909110
:1002C0008B019260D8CF926090938E0190918D01B6
:1002D000966090938D0190918C019A6090938C011F
:1002E00090918B019E6090938B0190918A01926016
:1002F00090938A01873008F0B8C0E82FF0E0E45A04
:10030000FA4F80918E010C944A059E6090938E0165
:1003100090918D019860CCCF946090938E019091D4
:100320008D01986090938D0190918C019E608DCF8E
:100330009E6090938E0190918D01926090938D01BB
:1003400090918C01946090938C0190918B019860B6
:1003500090938B0190918A019860CACF9E60909390
:100360008E0190918D019A60DDCF9E6090938E01F9
:1003700090918D019A6090938D0190918C019E6077
:1003800090938C0190918B01926090938B0190914E
:100390008A019460ADCFEA3008F067C0F0E0ED5913
:1003A000FA4F80918E010C944A05806E80938E01E5
:1003B00080918D01806A80938D0180918C01806A8B
:1003C00080938C0180918B01806A10C0806C809337
:1003D0008E0180918D01806480938D0180918C01CC
:1003E000806480938C0180918B01806480938B0169
:1003F00080918A01806E37C0806E80938E018091DB
:100400008D01806280938D0180918C01806E80933C
:100410008C0180918B018068E9CF806E80938E0182
:1004200080918D01806280938D0180918C01806E1E
:1004300080938C0180918B018062D8CF8062809301
:100440008E0180918D01806680938D0180918C0159
:10045000806A80938C0180918B01806E80938B01E8
:1004600080918A01806280938A01C0E1D7E20E9474
:1004700068002197E1F780916E00816080936E00A3
:10048000DF91CF910895806E80938E0180918D01D0
:100490008068C9CF806480938E0180918D018068CF
:1004A00080938D0180918C01806E8ACF806E8093C5
:1004B0008E0180918D01806280938D0180918C01ED
:1004C000806480938C0180918B01806880938B0184
:1004D00080918A018068C7CF806E80938E01809161
:1004E0008D01806ADDCF806E80938E0180918D01B9
:1004F000806A80938D0180918C01806E80938C0145
:1005000080918B01806280938B0180918A0180644D
:10051000AACFFF920F931F93CF93DF9380916E002A
:100520008E7F80936E000E949000C0E0DAEA85E53D
:10053000F82E90E080E03C2F3170282F2170FC01D4
:10054000E857FE4F332321F0222321F0D08303C04C
:100550002223E1F3F08201968830910571F700EDD6
:1005600017E00E94680001501109D9F783ED90E36C
:100570000197F1F700C00000CF5FC330D1F6809142
:100580006E00816080936E00DF91CF911F910F917B
:10059000FF900895E6E0F1E010821182329681E04A
:1005A000E638F807C9F70895E0910001E150F0E05E
:1005B000EE0FFF1FEA5FFE4F81E0E630F80749F4D7
:1005C00080910301809306018091020180930701CD
:1005D0000895DF019E918E9191838083FD01ECCF80
:1005E00030E020E070E0AB01022E02C05595479547
:1005F0000A94E2F740FF06C0F901E857FE4F9081E8
:10060000982B90832F5F3F4F2830310561F7089575
:100610000F931F93CF93809106019091040189233A
:1006200041F08091070190910501892301E010E0DC
:1006300021F4CF911F910F91089586E00E945300FD
:10064000C82F87E00E945300C770980101C0220F95
:10065000CA95EAF7209304018770B80101C0660FBC
:100660008A95EAF760930501822F0E94E6008111C6
:10067000E4CF809100018F5F80930001DACF209159
:10068000050130E05091040190E080E0B901082EAE
:1006900002C0759567950A94E2F760FF06C0FC01F9
:1006A000E857FE4F4081452B4083019688309105E5
:1006B00069F708951092860180910101811105C0AA
:1006C0008091000182500E94FA00109201010E9464
:1006D00089020E94900082E0809300010E94CA0279
:1006E00080E18093060188E08093070190E2909377
:1006F00008018093090194E090930401809305011F
:100700000E943F03809106018093030160910701DD
:100710006093020170E090E00E94F0026091090194
:1007200070E08091080190E00C94F002CF939091DA
:100730008601992309F446C08091020191FF12C0FD
:10074000869571F08093020160910201809103010E
:100750000E94E600C82F8823E1F0CF910C945A0341
:1007600080E8F0CF90FF04C0880F61F781E0EACF06
:100770008091030192FF07C0869519F080930301D1
:10078000E3CF80E8FBCF93FFDFCF880FB9F781E09D
:10079000F5CF0E9490000E94D40280910001C817FA
:1007A00028F00E940803CF910C943F03EC2FF0E057
:1007B000EE0FFF1FEA5FFE4F618180810E94F00211
:1007C000CF5FEBCFCF9108951F920F920FB60F928C
:1007D00011242F933F934F935F936F937F938F9346
:1007E0009F93AF93BF93EF93FF930E949603FF9164
:1007F000EF91BF91AF919F918F917F916F915F9199
:100800004F913F912F910F900FBE0F901F90189511
:100810000C94F0020F931F93CF93DF93EC018C01A4
:100820000E5E1F4F6B818A810E94F0022296C017D4
:10083000D107C1F7DF91CF911F910F910895DC018E
:10084000EFECF1E0AE17BF0751F08C919081892356
:1008500031F011968C9111979181892339F4759615
:1008600082E0EE30F80771F780E0089581E00895A6
:100870007F928F929F92AF92BF92CF92DF92EF9230
:10088000FF920F931F93CF93DF93812C85E1782EF6
:10089000CC24C394D12CA82CB12C879CE00111242A
:1008A0009E0121533E4F790186E00E945300182F8C
:1008B00087E00E9453001770F60102C0EE0FFF1F81
:1008C0001A95E2F78F01C057DE4FEFAFFE01E05CF3
:1008D000FF4F0083877099249394980E73969082AB
:1008E000C7010E941F048823A1F08A948394F3E037
:1008F0008F12D1CFDF91CF911F910F91FF90EF9089
:10090000DF90CF90BF90AF909F908F907F900C948E
:100910006800FE01E75BFF4F008331960083F4E03F
:10092000F91508F052C0FE01ED5BFF4F0083202F48
:10093000269531962083302F330F339630833196AE
:10094000008333962083319600833396008331965B
:10095000308387E0981659F198E0991609F1E6E09E
:100960009E120DC07A9CC0017B9C900D1124FC014D
:10097000EB52FE4F20838A529E4FFC0120837A9CCB
:10098000C0017B9C900D1124FC01EF52FE4F30837F
:100990008E529E4FFC012083C7010E940A04A6CFFD
:1009A000FE01EF5AFF4F2083CE5ADF4F38837A9CE7
:1009B000C0017B9C900D1124FC01E352FE4F30835B
:1009C00082529E4FFC013083CDCFF2E09F16F9F0AA
:1009D00023E0921699F031E09312DECF7A9CC001A9
:1009E0007B9C900D1124FC01E552FE4F202F269593
:1009F000208384529E4FFC010083CECFFE01EB5B2F
:100A0000FF4F802F86958083CA5BDF4F88837A9C57
:100A1000C0017B9C900D1124FC01ED52FE4F008320
:100A20008C529E4F202F2695FC012083D7CF0C940B
:100A3000F0028FEF84B98AB987B1837C87B988B116
:100A40008C6388B980E480937C0087E880937A0087
:100A500083E08093810081E080936F0085BD809367
:100A60006E00789480918701811105C00E945A031D
:100A70000E949B00FDCF0E943804FACF991B79E0B9
:100A800004C0991F961708F0961B881F7A95C9F71E
:100A900080950895EE0FFF1F0590F491E02D0994C5
:100AA000F894FFCF1A012B01410152016301850126
:100AB0008C019801AE01B501D501E601FC010D02E2
:100AC0001E0243024A02D501E601FC010D021E028C
:0A0AD00043024A0256026C02730250
:040ADA0002011010F5
:00000001FF
