:100000000C9434000C943E000C943E000C943E0082
:100010000C943E000C943E000C943E000C943E0068
:100020000C943E000C943E000C943E000C943E0058
:100030000C943E000C943E000C943E000C943E0048
:100040000C943E000C943E000C943E000C943E0038
:100050000C943E000C943E000C943E000C943E0028
:100060000C943E000C943E0011241FBECFEFD8E04C
:10007000DEBFCDBF0E9440000C9485000C940000B0
:1000800087B1837C87B988B18C6388B90FEF0AB9CF
:1000900004B910E018601BB92FEF209561E0732FB1
:1000A0002EEF30E0A0E02FEF61E0732F772319F0FF
:1000B000660F7A95FBCF6095262325B910E051E0B5
:1000C0004A2F442319F0550F4A95FBCF152B1BB926
:1000D00000C096B192FF10C093FF05C094FF09C005
:1000E00095FF04C0F6CF3395732F09C03A95732F4F
:1000F00006C0A395BA2F03C0AA95BA2F00C096B127
:0E0100009C739C33E1F7CFCFFFCFF894FFCF75
:00000001FF
