:020000020000FC
:040000000C94550007
:040034000C945100D7
:100040000C9453008F939F93AF9380E0F82F80E13F
:10005000E82F81E090819095A0E0990FA795990FE6
:10006000A795990FA795990FA795990FA795990F00
:10007000A795990FA795990FA795A5B98BB90BD0FF
:1000800090E09BB908D0880FE395E83119F7AF915C
:100090009F918F9108958F9384E68A95F1F78F91C0
:1000A0000895ADD01895CEDF18958FEF8DBF88E0FD
:1000B0008EBF8FEF84B98AB982E087B98CE388B9A3
:1000C00083E08093810081E080936F0081E085BDB3
:1000D00081E080936E0078947894409A429A439A93
:1000E000449A459AA0E1A0930001A09301010C94C9
:1000F00079000E94E5000C94790077276627552740
:10010000442733272227112700270895722D0895A9
:10011000622D0895522D0895422D0895322D08958F
:10012000222D0895122D0895022D08950E947D001C
:10013000209200014092010140FC0E94860041FC97
:100140000E94880042FC0E948A0043FC0E948C00AE
:1001500044FC0E948E0045FC0E94900046FC0E94D8
:10016000920047FC0E949400089586B184FF0C948D
:10017000B5000E949600089586B182FF0C94BC00E1
:100180000E949600089586B183FF0C94C3000E94DC
:100190009600089586B185FF0C94CA000E949600CF
:1001A0000895479491E00E94B5000895441C92E0A0
:1001B0000E94BC000895279494E00E94C300089513
:1001C000221C98E00E94CA000895409001012090EE
:1001D000000186B182FF0E94D60083FF0E94DB00EF
:1001E00084FF0E94D10085FF0E94E000089547949B
:1001F0000895441C089527940895221C089590FDA5
:100200000E94F70091FD0E94F90092FD0E94FB0000
:0C02100093FD0E94FD000E9496000895DE
:00000001FF
