:020000020000FC
:040000000C94540008
:040034000C945100D7
:100040000C9452008F939F93AF9380E0F82F80E140
:10005000E82F81E090819095A0E0990FA795990FE6
:10006000A795990FA795990FA795990FA795990F00
:10007000A795990FA795990FA795A5B98BB90BD0FF
:1000800090E09BB908D0880FE395E83119F7AF915C
:100090009F918F9108958F9384E68A95F1F78F91C0
:1000A00008951895CFDF18958FEF8DBF88E08EBF2C
:1000B0008FEF84B98AB982E087B98CE388B983E08D
:1000C0008093810081E080936F0081E085BD81E0B5
:1000D00080936E00789466E656E632E424E218E1F6
:00000001FF
